:020000040000FA
:060000000A128A1110280B
:10000800FE00030EF0000A08F100831203137F08B4
:10001800F2000A128A11F7290A128A111328F80124
:10002800F901FA018313203084003C300A128A1146
:100038001C240A128A1183010A128A1123280A121F
:100048008A114B230A128A1183120313051485148B
:10005800051085100030CC000130CB008630CA0076
:10006800A030C9000A128A1111230A128A110A1231
:100078008A110A240A128A11D030F3000030F400E1
:100088000A128A11F7230A128A110030F300F400C9
:100098000A128A11F7230A128A110A128A111324E2
:1000A8000A128A11D130F3000030F4000A128A11C2
:1000B800F7230A128A110130F3000030F4000A1203
:1000C8008A117B230A128A117308FF007F088312A2
:1000D8000313AD000130F3000030F4000A128A1156
:1000E8007B230A128A117308FF007F088312031307
:1000F800AE000130F3000030F4000A128A117B23AD
:100108000A128A117308FF007F0883120313AC00D8
:100118000130F3000030F4000A128A117B230A121E
:100128008A117308FF007F0883120313AF000130A0
:10013800F3000030F4000A128A117B230A128A1194
:100148007308FF007F08F8000130F3000030F40066
:100158000A128A117B230A128A117308FF007F088A
:10016800F9000030F300F4000A128A117B230A1206
:100178008A117308FF007F0883120313AB000A1269
:100188008A1101240A128A110A128A113E210A12BE
:100198008A110A128A11AB230A128A113B280A1201
:1001A8008A111028003083120313C7000030C600DC
:1001B8000030C5000030C4003F083E043D043C0444
:1001C8000319E728E8283529C801C80AF8280130A2
:1001D800F3000310BC0DBD0DBE0DBF0DF30BED28D4
:1001E8000130FF007F08C807BF1FFB28FC28EB2849
:1001F8000130F3000310C40DC50DC60DC70DF30B78
:10020800FE283F084302031D13293E084202031D2E
:1002180013293D084102031D13293C084002031C11
:100228001629172926293C08C0023D08031C3D0F42
:10023800C1023E08031C3E0FC2023F08031C3F0FC9
:10024800C302441401300310BF0CBE0CBD0CBC0C1F
:10025800FF3E031D27290130C802031D3429352913
:10026800FC284708BF004608BE004508BD004408F2
:10027800BC0008007908F30004300310F30CFF3EBB
:10028800031D412973080139FF007F0883120313F6
:10029800A50079080F39FF007F08AA007808F30045
:1002A80004300310F30CFF3E031D5529730803396E
:1002B800FF007F08A40078080F39FF007F08A90015
:1002C8002F08F30004300310F30CFF3E031D6729C9
:1002D80073080C39FF007F08A3002F080339FF00BB
:1002E8007F08A8002E08F30004300310F30CFF3E2B
:1002F800031D792973080739FF007F08A2002E081B
:100308000F39FF007F08A7002D08F3000430031001
:10031800F30CFF3E031D8B2973080739FF007F0884
:10032800A1002D080F39FF007F08A6000800F5007E
:10033800D329831603130F138F120F12F52983166F
:1003480003130F138F120F16F529831603130F13B8
:100358008F160F12F529831603130F138F160F1616
:10036800F529831603130F178F120F12F529831619
:1003780003130F178F120F16F529831603130F1780
:100388008F160F12F529831603130F178F160F16E2
:10039800F529831603130F178F160F12F529750801
:1003A800F300F4017408003A0319DB29CD29730816
:1003B800003A03199D29013A0319A329033A03199D
:1003C800A929013A0319AF29073A0319B529013AAE
:1003D8000319BB29033A0319C129013A0319C7298B
:1003E800CD290F1408008C1EFA29FB29342AFA019A
:1003F8001A08FF007F08FA0030307A06031D052A24
:10040800062A072A051031307A06031D0C2A0D2A00
:100418000E2A051432307A06031D132A142A152AC7
:10042800851033307A06031D1A2A1B2A1C2A8514C4
:1004380034307A06031D212A222A242AB701B70A52
:1004480035307A06031D292A2A2A2C2AB101B10A35
:1004580036307A06031D312A322A342AB001B00A0E
:100468000B1D372A382A462AEC3081000B1101303F
:10047800FF007F08B8070A303806031D442A452ABA
:10048800462AB8017208FF0071088A00700E8300BE
:10049800FE0E7E0E09007F2A2108303E9900831641
:1004A8000313981C582A592A532A0130FF007F0841
:1004B80083120313B307942A2608303E9900831643
:1004C8000313981C682A692A632A0130FF007F08F1
:1004D80083120313B307B301B701942A03309900B9
:1004E80083160313981C792A7A2A742A8312031311
:1004F800B301B701942A831203133308F300F401FC
:100508007408003A0319892A942A7308003A0319CF
:10051800502A013A0319602A033A0319722A942AC5
:100528000800BD2A2208303E990083160313981C40
:100538009E2A9F2A992A0130FF007F0883120313FD
:10054800B407D22A2708303E990083160313981C53
:10055800AE2AAF2AA92A9F2A0330990083160313CB
:10056800981CB72AB82AB22A83120313B401B1011E
:10057800D22A831203133408F300F4017408003AF2
:100588000319C72AD22A7308003A0319962A013A8E
:100598000319A62A033A0319B02AD22A0800FB2A0B
:1005A8002308303E990083160313981CDC2ADD2AA1
:1005B800D72A0130FF007F0883120313B507102BD9
:1005C8002808303E990083160313981CEC2AED2A5C
:1005D800E72ADD2A3A30990083160313981CF52A76
:1005E800F62AF02A83120313B501B001102B8312E7
:1005F80003133508F300F4017408003A0319052BB6
:10060800102B7308003A0319D42A013A0319E42A73
:10061800033A0319EE2A102B08002830831203131B
:100628009400831603139101831203134908F400FD
:100638004A08F5004B08F6004C08F7000230031092
:10064800F40DF50DF60DF70DFF3E031D232B77086E
:10065800BF007608BE007508BD007408BC000030F5
:10066800C3007A30C2001230C1000030C0000A1244
:100678008A11D6200A128A11831203133C08FF3EFE
:100688008316031393009401871507160800831235
:1006980003138501860187018801890183160313E5
:1006A800850186018701880189018316031788015E
:1006B80089018B170B178B160B11831603138C16D6
:1006C80081120112811101148114011506300A12D8
:1006D8008A119B210A128A110A128A11EC230A1222
:1006E8008A110A128A11D0230A128A1108000A12E2
:1006F8008A11DF230A128A118316031391150A122D
:100708008A11DF230A128A11831203131308F500D2
:10071800F6017508BC007608BD000A128A11DF23AD
:100728000A128A1173037404031D9B2B9C2BA02BA4
:10073800831603139112A32B831603139116111614
:10074800831203133D08F4003C08F30008008312E9
:1007580003133703031DB12BB22BB72B0A128A11CF
:100768004F220A128A11831203133103031DBD2B72
:10077800BE2BC32B0A128A1195220A128A118312E0
:1007880003133003031DC92BCA2BCF2B0A128A115E
:10079800D3220A128A110800831603131812981616
:1007A80018151813831603178711193083160313A6
:1007B80099009A010800831603131419E42BE52BFA
:1007C800DF2B11081F39031DEA2BEB2BDF2B080049
:1007D80083120313981718161811981018138316F4
:1007E80003138C1608000A128A11DF230A128A11D1
:1007F800730883120313930008000A128A11DF2377
:100808000A128A1183160313111508000A128A1195
:10081800DF230A128A1183160313111408000A121F
:100828008A11DF230A128A11831603139114080010
:1008380064008001840A04060319003404061D2C90
:04400E00D420FF3F7C
:00000001FF
