:020000040000FA
:060000000A128A11122809
:10000800FE00030EF8000408F9000A08FA0083123B
:1000180003137F08FB000A128A11C3280A128A11E7
:100028001528F001F101F201F301F401F501831241
:100038000313B601B701B801B901BA01BB01BC018C
:10004800BD01BE01BF01C001C101C201C301C4019C
:1000580083010A128A1130280A128A1130230A12DF
:100068008A110A128A1156230A128A11831203135B
:1000780087140715871007110030B1000130B00050
:100088008630AF00A030AE000A128A114C220A1244
:100098008A110A128A118A230A128A11D03083120D
:1000A8000313A0000030A1000A128A1177230A1254
:1000B8008A11003083120313A000A1000A128A11CA
:1000C80077230A128A110A128A1193230A128A11B3
:1000D800D13083120313A0000030A1000A128A1144
:1000E80077230A128A11013083120313A00000300B
:1000F800A1000A128A1186220A128A118312031396
:100108002008FF007F08F1000130A0000030A100A6
:100118000A128A1186220A128A11831203132008EE
:10012800FF007F08F2000130A0000030A1000A1291
:100138008A1186220A128A11831203132008FF00EB
:100148007F08F3000130A0000030A1000A128A11D4
:1001580086220A128A11831203132008FF007F08DF
:10016800F4000A128A1181230A128A110A128A11CA
:100178000E220A128A114D280A128A1112288C1E80
:10018800C628C7280029F5011A08FF007F08F500CE
:1001980030307506031DD128D228D3288710313076
:1001A8007506031DD828D928DA2887143230750631
:1001B800031DDF28E028E128071133307506031DE9
:1001C800E628E728E828071534307506031DED28CA
:1001D800EE28F028F001F00A35307506031DF528E1
:1001E800F628F828C401C40A36307506031DFD2810
:1001F800FE280029C301C30A0C1E03290429292942
:100208007003031D082909290E290A128A11B82228
:100218000A128A11831203134403031D1429152992
:100228001A290A128A11E0220A128A118312031368
:100238004303031D2029212926290A128A1108238C
:100248000A128A11831603130C120B1D2C292D294F
:100258003C29EC30831281000B110130FF007F082C
:10026800BD070A303D06031D3A293B293C29BD013B
:100278007B088312FF007A088A0079088400780EC8
:100288008300FE0E7E0E0900003083120313AC00BB
:100298000030AB000030AA000030A9002308220477
:1002A80021042004031959295A29A729AD01AD0AA7
:1002B8006A290130A8000310A00DA10DA20DA30DFD
:1002C800A80B5F290130FF007F08AD07A31F6D2928
:1002D8006E295D290130A8000310A90DAA0DAB0DE8
:1002E800AC0DA80B702923082702031D85292208B5
:1002F8002602031D852921082502031D85292008BA
:100308002402031C8829892998292008A402210885
:10031800031C210FA5022208031C220FA602230892
:10032800031C230FA702291401300310A30CA20CED
:10033800A10CA00CFF3E031D99290130AD02031D3D
:10034800A629A7296E292C08A3002B08A2002A0891
:10035800A1002908A000080083120313A200EA29BB
:10036800831603130F138F120F120C2A831603130D
:100378000F138F120F160C2A831603130F138F16E1
:100388000F120C2A831603130F138F160F160C2A3D
:10039800831603130F178F120F120C2A83160313D9
:1003A8000F178F120F160C2A831603130F178F16A9
:1003B8000F120C2A831603130F178F160F160C2A09
:1003C800831603130F178F160F120C2A2208A0008A
:1003D800A1012108003A0319F229E4292008003A6A
:1003E8000319B429013A0319BA29033A0319C02990
:1003F800013A0319C629073A0319CC29013A031906
:10040800D229033A0319D829013A0319DE29E42924
:100418000F14080074080739FF007F0883120313BC
:10042800BC007308A00004300310A00CFF3E031D9D
:10043800182A20080339FF007F08BA0073080F390B
:10044800FF007F08BB007208A00004300310A00C56
:10045800FF3E031D2A2A20080739FF007F08B8003D
:1004680072080F39FF007F08B9007108A000043036
:100478000310A00CFF3E031D3C2A20080739FF008B
:100488007F08B60071080F39FF007F08B700080021
:1004980028308312031394008316031391018312E7
:1004A80003132E08B2002F08B3003008B400310837
:1004B800B50002300310B20DB30DB40DB50DFF3EFB
:1004C800031D5E2A3508A3003408A2003308A100E2
:1004D8003208A0000030A7007A30A6001230A5002C
:1004E8000030A4000A128A1148210A128A118312C4
:1004F80003132008FF3E8316031393009401871506
:10050800071608000A128A116A230A128A1183162A
:10051800031391150A128A116A230A128A11831287
:1005280003131308A200A3012208A4002308A500AE
:100538000A128A116A230A128A11831203132003EA
:100548002104031DA82AA92AAD2A83160313911290
:10055800B02A831603139116111683120313250864
:10056800A1002408A0000800CA2A3608303E9900D5
:100578000130FF007F08BE07DF2A3708313E9900A7
:10058800BC2A3A309900BE01F001DF2A8312031316
:100598003E08F600F7017708003A0319D42ADF2A43
:1005A8007608003A0319B92A013A0319C12A033A0D
:1005B8000319C52ADF2A0800F22A3808303E9900B4
:1005C8000130FF007F08BF07072B3908313E99002B
:1005D800E42A3A309900BF01C401072B83120313A0
:1005E8003F08F600F7017708003A0319FC2A072BA1
:1005F8007608003A0319E12A013A0319E92A033A6D
:100608000319ED2A072B08001A2B3A08303E9900E7
:100618000130FF007F08C0072F2B3B08313E9900AF
:100628000C2B3A309900C001C3012F2B83120313FE
:100638004008F600F7017708003A0319242B2F2BFE
:100648007608003A0319092B013A0319112B033ACA
:100658000319152B2F2B080083120313850186011C
:1006680087018801890183160313850186018701A3
:100678008801890183160317880189018B170B17D5
:100688008B160B11831603138C168112011281111C
:1006980001148114011506300A128A11B0210A12B8
:1006A8008A110800831603131813181218158316D5
:1006B8000317871119308316031399009A019816A6
:1006C80083120313981718131816080083160313B8
:1006D80014196F2B702B6A2B11081F39031D752BEA
:1006E800762B6A2B08000A128A116A230A128A11C9
:1006F800831203132008930008000A128A116A2340
:100708000A128A1183160313111508000A128A1196
:100718006A230A128A1183160313111408000A1295
:100728008A116A230A128A11831603139114080086
:04400E00D620FF3F7A
:00000001FF
